:020000040800F2
:100000000040002001120008150200081702000835
:10001000190200081B0200081D0200080000000071
:100020000000000000000000000000001F020008A7
:100030002102000800000000230200082502000839
:100040004912000849120008491200084912000824
:100050004912000849120008491200084912000814
:100060004912000849120008491200084912000804
:1000700049120008491200084912000849120008F4
:1000800049120008491200084912000849120008E4
:1000900049120008491200084912000849120008D4
:1000A00049120008491200084912000849120008C4
:1000B00049120008491200084912000849120008B4
:1000C00049120008491200084912000849120008A4
:1000D0004912000849120008491200084912000894
:1000E0004912000849120008491200084912000884
:1000F000491200080000000000000000000000009D
:0C01000000000000000000005FF808F1A3
:10010C0010B5054C237833B9044B13B10448AFF345
:10011C0000800123237010BD840800200000000023
:10012C00FC1D000808B5034B1BB103490348AFF392
:10013C00008008BD0000000088080020FC1D00089D
:10014C00154B002B08BF134B9D46A3F5803A00219D
:10015C008B460F461348144A121A01F0A5F80F4BA0
:10016C00002B00D098470E4B002B00D09847002056
:10017C00002104000D000D48002802D00C4801F0AD
:10018C009DF901F06DF82000290000F01CF801F039
:10019C0057F800BF0000080000000000000000003D
:1001AC0000000000840800200C090020C91400087D
:1001BC00D514000882B00190019B5A1E0192002BAD
:1001CC00FAD102B0704708B50121022000F0DCFD25
:1001DC000A4954230B6001230B7100238B710322FA
:1001EC004A71CB71064800F0EDFB5421044800F035
:1001FC006EFC0448FFF7DEFFF7E700BFDC080020C9
:10020C0000040240A08601007047FEE7FEE7FEE70F
:10021C00FEE7704770477047704700007047012039
:10022C007047034B16221A604FF0FF30704700BF27
:10023C00E408002008B54FF0FF31FFF7F2FFFEE7AE
:10024C001046704703460B4A126842B1094A1068BF
:10025C0003446A46934206D8064A13607047054A1F
:10026C0005491160F2E7054B0C221A604FF0FF3084
:10027C00704700BFA00800200C090020E4080020F3
:10028C004FF0FF3070474FF400534B600020704725
:10029C000120704700207047002070470EB44FF0CB
:1002AC00FF3003B07047034B0A221A604FF0FF3047
:1002BC00704700BFE4080020024B02221A604FF086
:1002CC00FF307047E40800204FF0FF3070474FF4C8
:1002DC0000534B6000207047024B1F221A604FF0F6
:1002EC00FF307047E4080020024B0B221A604FF0DD
:1002FC00FF307047E4080020024B0C221A604FF0CC
:10030C00FF307047E40800202C1E0008000000207D
:10031C0084080020840800200C09002082B00023EF
:10032C0001930093324A136843F480331360304BCB
:10033C001B6803F400330093019B01330193009B72
:10034C001BB9019BB3F5A06FF1D1294B1B6813F4BA
:10035C00003F06D001230093009B012B04D002B078
:10036C00704700230093F7E7224B1A6842F004020F
:10037C001A601A6842F002021A601A6842F001020E
:10038C001A601B4A536A43F0805353621A4B4FF462
:10039C0000621A60184B5B6813F0100FFAD1144B03
:1003AC009A689A609A689A609A689A609A6822F435
:1003BC007D029A609A6842F411029A601A6842F0BF
:1003CC0080721A600A4B1B6813F0007FFAD0084B3E
:1003DC009A6822F003029A609A6842F003029A60CB
:1003EC00034B9B6803F00C030C2BF9D1B7E700BF50
:1003FC0000380240003C02400070004008B5104B31
:10040C001A6842F480721A6099680E4A0A409A601F
:10041C001A6822F0885222F001121A601A6822F42B
:10042C0080221A609A6822F47D029A600022DA60B7
:10043C00FFF774FF044B4FF000629A6008BD00BFD9
:10044C00003802400CC0FF8800ED00E02C4B9B688C
:10045C0003F00C030C2B47D8DFE803F007464646A5
:10046C001E464646224646462600254B5B68C3F38D
:10047C00423301334FF4004202FA03F3214A136072
:10048C001F4B9B68C3F303131E4A13441B7CD9B246
:10049C001368CB40136070471A4B1B4A1A60EFE786
:1004AC00184B1A4A1A60EBE7154988688B68C0F339
:1004BC008340144A02441279D2B2C3F381530133FC
:1004CC00896811F4803F07D10F4901FB02F2B2FB9E
:1004DC00F3F30C4A1360D3E70C4901FB02F2B2FBB5
:1004EC00F3F3084A1360CBE7054B5B68C3F3423365
:1004FC0001334FF4004202FA03F3024A1360BFE7E0
:10050C0000380240080000200024F40000127A0099
:10051C0070B40123B1FBF3F4944207D302FB03F351
:10052C00F8E705686E1C066030342C706BB1B1FBBB
:10053C00F3F403FB141193FBF2F3092CF1DD0568C2
:10054C006E1C066037342C70F0E770BC704730B509
:10055C0083B001900C460092054648E0009B1A1DA2
:10056C0000921A68019B591C01911A7002343EE0EA
:10057C00009B1A1D00921968002904DB0A2201A8AD
:10058C00FFF7C6FFF2E74942019B5A1C01922D224C
:10059C001A70F3E7009B1A1D00921B6805E0019A84
:1005AC00511C019113F8011B11701A78002AF6D115
:1005BC00DCE7009B1A1D00920A22196801A8FFF7BC
:1005CC00A7FFD3E7009B1A1D00921022196801A8FF
:1005DC00FFF79EFFCAE7019B5A1C019225221A7055
:1005EC00C4E7019B5A1C019214F8012B1A70237852
:1005FC00002B51D0252BF4D16378252BEBD0B5D320
:10060C00782BB3D8582BB1D3583B202BAED801A2A2
:10061C0052F823F0D1050008790500087905000887
:10062C0079050008790500087905000879050008A6
:10063C007905000879050008790500087905000896
:10064C00690500087D050008790500087905000892
:10065C0079050008790500087D0500087905000872
:10066C007905000879050008790500087905000866
:10067C007905000879050008790500087905000856
:10068C00A105000879050008BF05000879050008D8
:10069C0079050008D1050008019B00221A70019809
:1006AC00401B03B030BD82B003460191002021E015
:1006BC00019B0433019301300B461AE00B30019B74
:1006CC00043301930B4614E0019B1A1D01921B6825
:1006DC0013F8012B0AB10130FAE70B4609E0083098
:1006EC00019B043301930B4603E001300B4600E001
:1006FC00013001331A78002A4CD0252AF8D1591C24
:10070C005B78583B202BF0D801A252F823F000BFA5
:10071C00EB060008F7060008F7060008F7060008C5
:10072C00F7060008F7060008F7060008F7060008A9
:10073C00F7060008F7060008F7060008BD060008D3
:10074C00C9060008F7060008F7060008F7060008B7
:10075C00F7060008C9060008F7060008F7060008A7
:10076C00F7060008F7060008F7060008F706000869
:10077C00F7060008F7060008F7060008D50600087B
:10078C00F7060008C9060008F7060008F706000877
:10079C00EB06000802B070470EB400B582B003AA95
:1007AC0052F8041B0192FFF7D2FE02B05DF804EB85
:1007BC0003B070470EB4F0B582B000AF054607F138
:1007CC001C0454F8046B7C6021463046FFF76BFF29
:1007DC00C31D23F00703ADEB030D7C6022463146AD
:1007EC006846FFF7B4FE02466946B5F90E00FFF7FE
:1007FC0027FD0837BD46BDE8F04003B070470FB485
:10080C00B0B582B000AF07F1180454F8045B7C60FB
:10081C0021462846FFF747FF073020F00700ADEBD5
:10082C00000D7C60224629466846FFF790FE024682
:10083C0069460120FFF704FD0837BD46BDE8B0400E
:10084C0004B0704708B500F05FF9012000F0A2F980
:10085C0040220C21002000F0B1F9032000F0CEF969
:10086C00012000F0B3F9002000F0DAF9002000F0CC
:10087C00E1F9002000F0E8F9012000F079FA0121FB
:10088C00084600F081FA0121022000F07DFA0121D6
:10089C00042000F079FA0121082000F075FA0121FA
:1008AC00102000F071FA0121402000F06DFA0121B6
:1008BC00084600F077FA0121084600F073FA064B5F
:1008CC0040F2E7325A60054AF02182F823100022E8
:1008DC009A6007221A6008BD10E000E000ED00E00D
:1008EC0008B5304B984215D02F4B98421BD02F4B4C
:1008FC00984221D02E4B984227D02E4B98422DD087
:10090C002D4B984233D02D4B984239D02C4B9842DA
:10091C003FD008BD0121084600F060FA00210120FB
:10092C0000F05CFAF5E70121022000F057FA0021F3
:10093C00022000F053FAECE70121042000F04EFAFB
:10094C000021042000F04AFAE3E70121082000F01E
:10095C0045FA0021082000F041FADAE701211020C5
:10096C0000F03CFA0021102000F038FAD1E7012108
:10097C00402000F033FA0021402000F02FFAC8E7A5
:10098C000121802000F02AFA0021802000F026FAB4
:10099C00BFE70121202000F021FA0021202000F0E7
:1009AC001DFAB6E7000002400004024000080240B5
:1009BC00000C02400010024000180240001C0240D3
:1009CC000014024000230F2B46D8F0B42AE08268B2
:1009DC001640866082684D79A5402A4382608688DD
:1009EC00B6B21FFA83FC012707FA0CF726EA0706B2
:1009FC008680828892B28D7905FA0CF5ADB22A43C5
:100A0C008280C2689DB26E000325B54022EA0502C1
:100A1C00C260C268CD7905FA04F41443C460013392
:100A2C000F2B17D801229A400C68A243F7D1056806
:100A3C005C000322A240D64325EA0202026002684F
:100A4C000D79A5402A4302600A79013AD2B2012AF3
:100A5C00D7D8BCE7F0BC704770474FF6FF73036004
:100A6C000023037143718371C371704782B04FF4DB
:100A7C0080330193019B0B430193019BC361C161C3
:100A8C00019BC361C3690193C369019302B07047B1
:100A9C00038A194201D00120704700207047008A58
:100AAC0080B27047838A194201D001207047002020
:100ABC007047808A80B270470183704741837047CA
:100ACC000AB1018370474183704781827047838AE2
:100ADC009BB24B408382704730B401F007039B00FC
:100AEC0002FA03F4C908083150F821200F2505FA41
:100AFC0003F322EA030340F8213050F8212022436B
:100B0C0040F8212030BC70470C4B1A6842F48072BC
:100B1C001A6099680A4A0A409A601A6822F0885248
:100B2C0022F001121A601A6822F480221A609A6864
:100B3C0022F47D029A600022DA607047003802408D
:100B4C000CC0FF88024B00221A701870704700BF4F
:100B5C0002380240014B1870704700BF0738024042
:100B6C00034A536823F4604303435360704700BF48
:100B7C0000380240014B1860704700BF200047420C
:100B8C00034A536823F4F85343EA00235360704735
:100B9C0000380240014B1860704700BF000047420C
:100BAC00024B00221A701870704700BF3538024093
:100BBC00014B1860704700BF800647421143014348
:100BCC00014B1970704700BF0A380240014B186086
:100BDC00704700BF60004742014B1860704700BF70
:100BEC0070004742014B1860704700BFAC0647428B
:100BFC000843014B187070470B380240034A936846
:100C0C0023F0030303439360704700BF0038024096
:100C1C00024B986800F00C00704700BF003802408F
:100C2C00034A936823F0F00303439360704700BFBB
:100C3C0000380240034A936823F4E0630343936053
:100C4C00704700BF00380240034A936823F4605396
:100C5C0043EAC003936070470038024010B4334B32
:100C6C009B6803F00C030C2B54D8DFE803F00753FC
:100C7C005353305353533353535336002B4B5B68FE
:100C8C00C3F3423301334FF4004202FA03F303601F
:100C9C00264CA368C3F30313254A13441B7BDBB216
:100CAC00016821FA03F34360A168C1F302211144E6
:100CBC00097BC9B223FA01F18160A168C1F3C22199
:100CCC000A44127BD2B2D340C36010BC7047194B9C
:100CDC000360DDE7184B0360DAE714498A688B6818
:100CEC00C2F38342124CA25CD2B2C3F381530133E0
:100CFC00896811F4803F06D10E4901FB02F2B2FB68
:100D0C00F3F30360C4E70C4901FB02F2B2FBF3F30B
:100D1C000360BDE7054B5B68C3F3423301334FF40B
:100D2C00004202FA03F30360B2E700BF003802404E
:100D3C00280000200024F40000127A0000F4403255
:100D4C00B2F5403F08D0094B596B21F4403159633F
:100D5C00596B0A435A63704704490B6823F0C0432C
:100D6C0000F0C04018430860EDE700BF00380240B7
:100D7C00014B1860704700BFD8064742014B186002
:100D8C00704700BFDC06474221B1054AD3691843BE
:100D9C00D0617047024AD36923EA0000D0617047E2
:100DAC000038024021B1054A136A1843106270479B
:100DBC00024A136A23EA00001062704700380240AE
:100DCC0021B1054A536A184350627047024A536A6C
:100DDC0023EA0000506270470038024021B1054AF6
:100DEC001369184310617047024A136923EA000023
:100DFC00106170470038024021B1054A536918430D
:100E0C0050617047024A536923EA000050617047F1
:100E1C000038024021B1054A93691843906170472C
:100E2C00024A936923EA000090617047003802403F
:100E3C0021B1054A936A184390627047024A936A3B
:100E4C0023EA0000906270470038024021B1054A45
:100E5C00D36A1843D0627047024AD36A23EA00006F
:100E6C00D06270470038024021B1054A136B184319
:100E7C0010637047024A136B23EA0000106370473B
:100E8C000038024021B1054A13781843107070479E
:100E9C00024A137823EA0000107070470D380240A4
:100EAC004309012B0AD0084B5B6B00F01F0023FA9F
:100EBC0000F010F0010F04D001207047024B1B68AA
:100ECC00F3E70020704700BF0038024000B583B044
:100EDC00002301933120FFF7E3FF019B01330193C2
:100EEC00019BB3F5A06F01D00028F3D03120FFF7A0
:100EFC00D7FF00B1012003B05DF804FB024A536B2D
:100F0C0043F080735363704700380240034BDB6837
:100F1C00184201D001207047002070470038024071
:100F2C00014B1870704700BF0E38024040F0BF6094
:100F3C0040F40030014BD860704700BF00ED00E07A
:100F4C00C378FBB1154BDB68DB43C3F30222C2F160
:100F5C000401C9B20F23134142788A40D2B281787E
:100F6C000B4013431B01DBB202780D490A4482F893
:100F7C000033037803F01F005B090122824041F823
:100F8C0023207047037803F01F015B0901228A407C
:100F9C002033034941F82320704700BF00ED00E0E7
:100FAC0000E100E021F0604121F07F010143014BA1
:100FBC009960704700ED00E021B1054B1A691043B0
:100FCC0018617047024A136923EA000010617047E8
:100FDC0000ED00E0042805D0054A136823F0040353
:100FEC0013607047024A136843F0040313607047A0
:100FFC0010E000E008B501214FF00050FFF70AFFA8
:10100C0000214FF00050FFF705FF08BD30B40A4C2B
:10101C00226840F6FE73834022EA03020B684D6897
:10102C002B438D682B43C9680B4303FA00F0104324
:10103C00206030BC704700BF007400400023036088
:10104C0043608360C360704739B108490B68012263
:10105C0002FA00F018430860704704490B6801223B
:10106C0002FA00F023EA00000860704700740040A8
:10107C0041B109494B680009012202FA00F01843FA
:10108C004860704704494B680009012202FA00F0DD
:10109C0023EA0000486070470074004028B1064AFB
:1010AC00536843F0030353607047034A536823F0BB
:1010BC0003035360704700BF007400402AB1064A16
:1010CC0013688140194311607047034A13688140CB
:1010DC0023EA0101116070470074004082B00023C4
:1010EC000193054B0193019B034408330193019B2E
:1010FC00196002B0704700BF0074004082B000233A
:10110C000193054B0193019B034414330193019B01
:10111C00196002B0704700BF00740040082804D06A
:10112C0042EA0142024BC250704742EA0122F9E7FF
:10113C002074004082B000230193064B0193019B65
:10114C0003EB90032C330193019B186880B202B01F
:10115C00704700BF0074004041B109490B684FF45F
:10116C00805202FA00F018430860704704490B687B
:10117C004FF4805202FA00F023EA00000860704736
:10118C00007400402AB1064A13688140194311606B
:10119C007047034A1368814023EA010111607047CC
:1011AC0000740040044B5B6B81400B4201D001206A
:1011BC0070470020704700BF007400408140014B15
:1011CC005963704700740040064A136881400B4015
:1011DC00526B114202D01BB900207047002070479F
:1011EC0001207047007400408140014B59637047E7
:1011FC0000740040002103E00B4B5B58435004315A
:10120C000A480B4B42189A42F6D30A4A02E00023D2
:10121C0042F8043B084B9A42F9D3FFF7EFF800F081
:10122C001FF8FEF7D0FF70472C1E000800000020AE
:10123C0084080020840800200C090020FEE7000030
:10124C0008B50021044600F0D9F8044B1868C36BAC
:10125C0003B198472046FEF7EDFF00BFF81D0008CC
:10126C0070B50D4E0D4D761BB61006D0002455F8FA
:10127C00043B01349847A642F9D1094E094D00F0C0
:10128C00B9FD761BB61006D0002455F8043B01348A
:10129C009847A642F9D170BD201E0008201E0008F8
:1012AC00281E0008201E0008F0B4860746D0541EE5
:1012BC00002A3CD00346CAB201E0013C37D303F804
:1012CC00012B9D07F9D1032C2AD9CDB245EA05256E
:1012DC000F2C45EA054534D9A4F1100222F00F0C6D
:1012EC0003F120071609674403F1100242E9045583
:1012FC0042E902551032BA42F8D1721C14F00C0FAC
:10130C0003EB021204F00F0613D0331F23F0030378
:10131C000433134442F8045B9342FBD106F00304FC
:10132C002CB1CAB21C4403F8012B9C42FBD1F0BC7B
:10133C00704734461346002CF3D1F8E714460346A5
:10134C00C1E71A462646E0E738B50C46096805465B
:10135C0009B1FFF7F9FF21462846BDE8384000F0F7
:10136C0019B900BF1F4B1B6883423AD0C16C70B5D2
:10137C00054681B100268C593CB12146246828468B
:10138C0000F008F9002CF8D1E96C0436802EF2D16B
:10139C00284600F0FFF8296C11B1284600F0FAF845
:1013AC00D5F8484154B105F5A676B44206D021468D
:1013BC002468284600F0EEF8A642F8D1696D11B108
:1013CC00284600F0E7F8AB6B53B12846EB6B984717
:1013DC00D5F8E01221B12846BDE87040FFF7B4BF44
:1013EC0070BD704744000020024B13B1024800F05E
:1013FC0065B8704700000000D51400082DE9F04FC7
:10140C002C4B83B0019018680F4600F0D3F92A4B8F
:10141C00D3F80080D8F848619EB14FF001094FF025
:10142C00000A7468651E0CD4013406EB84047FB189
:10143C00D4F80031BB420BD0013D6B1CA4F1040469
:10144C00F5D11C4B186803B0BDE8F04F00F0BAB9E9
:10145C0073682268013BAB420CBF7560C4F800A0F6
:10146C00002AE9D0D6F8880109FA05F10142D6F82C
:10147C0004B00BD1904772685A4512D1D8F8483154
:10148C00B342D9D01E46002ECBD1DAE7D6F88C0168
:10149C0001420BD1D4F880100198904772685A45DC
:1014AC00ECD0D8F84861002EBBD1CAE7D4F8800044
:1014BC009047E0E770040020F81D00080023014667
:1014CC001A46184600F04CBC38B5084B084D5B1B4F
:1014DC009C1007D0043B1D44013C55F80439984737
:1014EC00002CF9D1BDE8384000F08ABC2C1E000855
:1014FC00281E0008F8B50C46234F064600F012FCD7
:10150C00BB68C4F57E615D680F3125F003054B198E
:10151C0023F47F6323F00F03A3F58054B4F5805FAD
:10152C0007DB0021304600F009FCBB682B449842D5
:10153C0004D0304600F0FCFB0020F8BD3046614280
:10154C0000F0FCFB01300DD0104AB96813682D1B5C
:10155C0045F0010530461B1B4D60136000F0E8FBA5
:10156C000120F8BD0021304600F0E8FBBA68831A70
:10157C000F2BDEDD064943F001030C680349001B09
:10158C0053600860D5E700BF74040020A808002051
:10159C007C08002000295FD0F8B50C46064600F008
:1015AC00C1FB54F8043CDFF8F4C1A4F1080023F0AB
:1015BC0001014218DCF808705568974225F00305C4
:1015CC0000F08980DF07556034D454F8087C0CF1A6
:1015DC000804C01B83683944A3426AD057197F683A
:1015EC00D0F80CE0C3F80CE0CEF80830FB0740F163
:1015FC00978041F0010343601160B1F5007F34D254
:10160C000122DCF80440CB084909134402FA01F129
:10161C0021430CEBC3025CF83340083AC0E90242A8
:10162C00CCF804104CF83300E0603046BDE8F840CC
:10163C0000F07EBB53195B68DF070ED429440CF114
:10164C0008049368A34273D0D46841F00102DC60B3
:10165C00A36042604150D0E7704741F00103B1F5FF
:10166C00007F44F8043C1160CAD3B1F5206F4FEAF7
:10167C0051234AD28B0903F13905ED0003F13802ED
:10168C005CF805300CEB0504083C9C4259D05A68B8
:10169C0022F003028A4202D99B689C42F7D1DC6893
:1016AC00C0E90234A060D8603046BDE8F84000F0D4
:1016BC003FBB53195B68DB0766D4D2E9022329448C
:1016CC0041F00104D3609A60446041503046BDE85B
:1016DC00F84000F02DBBDB07294407D454F8084C24
:1016EC00001BD0E902232144D3609A60294B41F0BE
:1016FC0001021B6842608B42CCF8080095D8264B3F
:10170C0030461968FFF7F6FE8FE7142B0AD9542BD5
:10171C0021D80B0B03F16F05ED0003F16E02AFE75F
:10172C0029448EE703F15C05ED0003F15B02A7E7AA
:10173C0041F00103CCE90400C0E90244436041508C
:10174C0073E70125DCF80410921005FA02F20A4343
:10175C00CCF80420A4E7B3F5AA7F06D8CB0B03F191
:10176C007805ED0003F177028AE740F25452934278
:10177C0006D88B0C03F17D05ED0003F17C027FE7AD
:10178C004FF47E757E227BE741F0010343601160CC
:10179C004BE700BF80080020D8080020740400200C
:1017AC00704700BF704700BF704700BF704700BF55
:1017BC00704700BF704700BF012070470120704781
:1017CC00704700BF704700BF2DE9F04F01F10B05CA
:1017DC00162D064683B024D8102900F2B68000F0EE
:1017EC00A1FA102502201823DFF8E88443445C6832
:1017FC00A3F10802944200F0B4806368E16823F01E
:10180C00030323445A68A56842F00102E96030469C
:10181C008D6008345A6000F08BFA204603B0BDE8A6
:10182C00F08F35F0070500F19080A94200F28D8011
:10183C0000F078FAB5F5FC7FC0F085816B0A00F0FA
:10184C008B80042B00F25B81AB0903F1390003F1AF
:10185C003807C100DFF87C8441444C680839A14248
:10186C0006D10CE0002A80F22281E468A14206D065
:10187C00636823F003035A1B0F2AF3DD3846D8F8AC
:10188C001040DFF854C4644577D0626822F003023C
:10189C00531B0F2B00F36581002BC8E904CC80F29D
:1018AC005681B2F5007F80F006810121D3085209E0
:1018BC000B4401FA02F2D8F8041058F8337008EB14
:1018CC00C30E0A43AEF10801C4E90271C8F8042042
:1018DC0048F83340FC60012183109940914253D861
:1018EC00114206D120F003004900114200F104001E
:1018FC00FAD008EBC0094C468646E768BC4207D1D3
:10190C0009E1002B80F21081FF68BC4200F00381DA
:10191C007A6822F00302531B0F2BF2DD45F0010E07
:10192C003046D7E902413D4443F00106C7F804E0D4
:10193C00E1608C60C8E90455C5E902CC6E60BB500F
:10194C0000F0F6F907F1080402E00C2300243360E0
:10195C00204603B0BDE8F08F4FF4007140203F27C4
:10196C0078E7DC68A34208BF02307FF446AFD8F8B2
:10197C001040DFF864C3644587D10121D8F80420F6
:10198C00831099409142ABD9D8F80840676827F08A
:10199C000307BD4202D87B1B0F2B77DCDFF83C938F
:1019AC00C84BD9F800201B6801322B4404EB070A02
:1019BC0000F0248103F580530F3323F47F6B2BF05D
:1019CC000F0B5946304600F0B9F9411C024600F0A5
:1019DC00E180824500F2DC80BB4B19685944084613
:1019EC00196000F04181D9F80010019301311BBF3F
:1019FC00A2EB0A0A5044C9F80020186012F0070A3A
:101A0C0000F00A81CAF108010A44CAF580519344D6
:101A1C000831A1EB0B01C1F30B094946304600928A
:101A2C0000F08CF9421CDDE9002300F04381801AA0
:101A3C0000EB090B19684BF0010049444445C8F808
:101A4C0008201960506000F01C810F2F40F21B81A0
:101A5C004FF0050C60680C3F27F0070700F0010001
:101A6C00384304EB070E0F2F6060CEE901CC00F277
:101A7C00378114465068954B1A688A4238BF1960F2
:101A8C00934B1A688A4238BF196086E045F0010210
:101A9C0043F00103254462603046C8F8085008340E
:101AAC006B6000F045F9204603B0BDE8F08F23448D
:101ABC005A68E168A7E6B2F5206F4FEA522361D36A
:101ACC00142B00F2BA8003F15C01C9005B3308EB04
:101ADC00010758F80110083F8F4200F092804B68C4
:101AEC0023F00303934202D989688F42F7D1CF6860
:101AFC00D8F80420C4E90217BC60CC60EBE6142BC8
:101B0C0059D9542B00F2A1802B0B03F16F0003F178
:101B1C006E07C1009EE60EF1010E1EF0030F04F1DC
:101B2C0008047FF4EAAE51E03C463A445368F96845
:101B3C0054F8085F43F0010353603046E9608D6050
:101B4C0000F0F6F804E7E80805F108034CE6224437
:101B5C005368304643F001035360083400F0E8F852
:101B6C00F6E645F0010743F0010125446760304675
:101B7C00C8E90455C5E902CC6960A35000F0D8F857
:101B8C000834E5E6930903F13901C90038339EE7BF
:101B9C00444564D0D8F80840606820F0030B5D45DC
:101BAC00ABEB050302D80F2B3FF770AF304600F0BC
:101BBC00BFF80024CCE603F15C0003F15B07C10025
:101BCC0048E659F808394B4540F0A98010F0030F4E
:101BDC0000F1FF30F5D1D8F8043023EA0103C8F83E
:101BEC000430490099423FF6CFAE19B9CCE6490012
:101BFC000EF1040E1942FAD070467AE603F1100B7E
:101C0C00DFE64FF0010E9A10D8F804300EFA02F20B
:101C1C001A43C8F804206DE702EB0B014942C1F3EB
:101C2C000B0949463046009200F088F8431CDDE968
:101C3C0000237FF4FCAED146FCE6542B26D8130BC4
:101C4C0003F16F01C9006E3341E7B3F5AA7F26D8C3
:101C5C00EB0B03F1780003F17707C100FAE51A4B9F
:101C6C00186858441860BEE6CAF30B0CBCF1000FA0
:101C7C007FF4B9AED8F80840BB444BF0010060606B
:101C8C00F9E61446F7E6012353608FE7B3F5AA7F14
:101C9C0032D8D30B03F17801C900773317E740F240
:101CAC005452934232D8AB0C03F17D0003F17C0704
:101CBC00C100CFE5AAF1080AD3444FF00009ABEB01
:101CCC00020BB7E6D8080020A8080020D008002096
:101CDC00D4080020740400207C0400207C08002020
:101CEC0004F1080130460093FFF754FCD8F8084083
:101CFC00009B60681968BEE640F254518B420AD8CA
:101D0C00930C03F17D01C9007C33E0E64FF47E7146
:101D1C007F207E279EE54FF47E717E23D7E6D8F890
:101D2C0004305EE70148FFF745BD00BFF80800200E
:101D3C000148FFF747BD00BFF8080020002238B566
:101D4C00064D044608462A60FEF77CFA431C00D078
:101D5C0038BD2B68002BFBD0236038BDE408002075
:101D6C002DE9F047DFF880A00646DAF80000984627
:101D7C000F469146FFF71EFD1A4B1B68D3F84841DE
:101D8C0024B365681F2D26DC5EB96B1C0235DAF8AE
:101D9C000000636044F82570FFF714FD0020BDE8D7
:101DAC00F087012304EB8501C1F88890D4F88821D1
:101DBC00AB401A43022EC4F88821C1F80881E4D143
:101DCC00D4F88C211343C4F88C31DEE703F5A674E8
:101DDC00C3F84841D5E7DAF80000FFF7F3FC4FF001
:101DEC00FF30DCE7F81D00087004002048000020DC
:101DFC0000000000F8B500BFF8BC08BC9E46704758
:0C1E0C00F8B500BFF8BC08BC9E4670474B
:081E180034E3FF7F010000002C
:081E2000F51300083101000870
:041E28000D010008A0
:101E2C0000000000A40800200048E8010304060894
:101E3C000C10182030000000000000000000000012
:101E4C000102030406070809030406080C101820F5
:101E5C003000000000000000010203040102030432
:101E6C000607080948000020000000003403002089
:101E7C009C0300200404002000000000000000006F
:101E8C000000000000000000000000000000000046
:101E9C000000000000000000000000000000000036
:101EAC000000000000000000000000000000000026
:101EBC000000000000000000000000000000000016
:101ECC000000000000000000000000000000000006
:101EDC0000000000000000000000000000000000F6
:101EEC0000000000000000000000000000000000E6
:101EFC0000000000000000000000000000000000D6
:101F0C0000000000000000000000000000000000C5
:101F1C0001000000000000000E33CDAB34126DE662
:101F2C00ECDE05000B0000000000000000000000CB
:101F3C000000000000000000000000000000000095
:101F4C000000000000000000000000000000000085
:101F5C000000000000000000000000000000000075
:101F6C000000000000000000000000000000000065
:10229C00E80800200000000000000000740400208A
:1022AC00740400207C0400207C04002084040020A2
:1022BC00840400208C0400208C0400209404002052
:1022CC00940400209C0400209C040020A404002002
:1022DC00A4040020AC040020AC040020B4040020B2
:1022EC00B4040020BC040020BC040020C404002062
:1022FC00C4040020CC040020CC040020D404002012
:10230C00D4040020DC040020DC040020E4040020C1
:10231C00E4040020EC040020EC040020F404002071
:10232C00F4040020FC040020FC0400200405002020
:10233C00040500200C0500200C05002014050020CD
:10234C00140500201C0500201C050020240500207D
:10235C00240500202C0500202C050020340500202D
:10236C00340500203C0500203C05002044050020DD
:10237C00440500204C0500204C050020540500208D
:10238C00540500205C0500205C050020640500203D
:10239C00640500206C0500206C05002074050020ED
:1023AC00740500207C0500207C050020840500209D
:1023BC00840500208C0500208C050020940500204D
:1023CC00940500209C0500209C050020A4050020FD
:1023DC00A4050020AC050020AC050020B4050020AD
:1023EC00B4050020BC050020BC050020C40500205D
:1023FC00C4050020CC050020CC050020D40500200D
:10240C00D4050020DC050020DC050020E4050020BC
:10241C00E4050020EC050020EC050020F40500206C
:10242C00F4050020FC050020FC050020040600201B
:10243C00040600200C0600200C06002014060020C8
:10244C00140600201C0600201C0600202406002078
:10245C00240600202C0600202C0600203406002028
:10246C00340600203C0600203C06002044060020D8
:10247C00440600204C0600204C0600205406002088
:10248C00540600205C0600205C0600206406002038
:10249C00640600206C0600206C06002074060020E8
:1024AC00740600207C0600207C0600208406002098
:1024BC00840600208C0600208C0600209406002048
:1024CC00940600209C0600209C060020A4060020F8
:1024DC00A4060020AC060020AC060020B4060020A8
:1024EC00B4060020BC060020BC060020C406002058
:1024FC00C4060020CC060020CC060020D406002008
:10250C00D4060020DC060020DC060020E4060020B7
:10251C00E4060020EC060020EC060020F406002067
:10252C00F4060020FC060020FC0600200407002016
:10253C00040700200C0700200C07002014070020C3
:10254C00140700201C0700201C0700202407002073
:10255C00240700202C0700202C0700203407002023
:10256C00340700203C0700203C07002044070020D3
:10257C00440700204C0700204C0700205407002083
:10258C00540700205C0700205C0700206407002033
:10259C00640700206C0700206C07002074070020E3
:1025AC00740700207C0700207C0700208407002093
:1025BC00840700208C0700208C0700209407002043
:1025CC00940700209C0700209C070020A4070020F3
:1025DC00A4070020AC070020AC070020B4070020A3
:1025EC00B4070020BC070020BC070020C407002053
:1025FC00C4070020CC070020CC070020D407002003
:10260C00D4070020DC070020DC070020E4070020B2
:10261C00E4070020EC070020EC070020F407002062
:10262C00F4070020FC070020FC0700200408002011
:10263C00040800200C0800200C08002014080020BE
:10264C00140800201C0800201C080020240800206E
:10265C00240800202C0800202C080020340800201E
:10266C00340800203C0800203C08002044080020CE
:10267C00440800204C0800204C080020540800207E
:10268C00540800205C0800205C080020640800202E
:10269C00640800206C0800206C080020FFFFFFFF7E
:0426AC000000020028
:0400000508001201DC
:00000001FF
